{
  "_format": "hh-sol-artifact-1",
  "contractName": "Hotel",
  "sourceName": "contracts/Hotel.sol",
  "abi": [
    {
      "inputs": [],
      "name": "InvalidInitialization",
      "type": "error"
    },
    {
      "inputs": [],
      "name": "NotInitializing",
      "type": "error"
    },
    {
      "inputs": [
        {
          "internalType": "address",
          "name": "owner",
          "type": "address"
        }
      ],
      "name": "OwnableInvalidOwner",
      "type": "error"
    },
    {
      "inputs": [
        {
          "internalType": "address",
          "name": "account",
          "type": "address"
        }
      ],
      "name": "OwnableUnauthorizedAccount",
      "type": "error"
    },
    {
      "anonymous": false,
      "inputs": [
        {
          "indexed": true,
          "internalType": "address",
          "name": "user",
          "type": "address"
        },
        {
          "indexed": false,
          "internalType": "uint256",
          "name": "amount",
          "type": "uint256"
        }
      ],
      "name": "BookingSendRequest",
      "type": "event"
    },
    {
      "anonymous": false,
      "inputs": [
        {
          "indexed": false,
          "internalType": "bool",
          "name": "booked",
          "type": "bool"
        }
      ],
      "name": "CheckIfUserBooked",
      "type": "event"
    },
    {
      "anonymous": false,
      "inputs": [
        {
          "indexed": true,
          "internalType": "address",
          "name": "user",
          "type": "address"
        }
      ],
      "name": "CheckedOut",
      "type": "event"
    },
    {
      "anonymous": false,
      "inputs": [
        {
          "indexed": false,
          "internalType": "uint64",
          "name": "version",
          "type": "uint64"
        }
      ],
      "name": "Initialized",
      "type": "event"
    },
    {
      "anonymous": false,
      "inputs": [
        {
          "indexed": true,
          "internalType": "address",
          "name": "previousOwner",
          "type": "address"
        },
        {
          "indexed": true,
          "internalType": "address",
          "name": "newOwner",
          "type": "address"
        }
      ],
      "name": "OwnershipTransferred",
      "type": "event"
    },
    {
      "anonymous": false,
      "inputs": [
        {
          "indexed": false,
          "internalType": "uint256",
          "name": "amount",
          "type": "uint256"
        }
      ],
      "name": "Withdraw",
      "type": "event"
    },
    {
      "inputs": [],
      "name": "ROOMS_MAX_COUNT",
      "outputs": [
        {
          "internalType": "uint8",
          "name": "",
          "type": "uint8"
        }
      ],
      "stateMutability": "view",
      "type": "function"
    },
    {
      "inputs": [
        {
          "internalType": "address",
          "name": "",
          "type": "address"
        }
      ],
      "name": "bookings",
      "outputs": [
        {
          "internalType": "address",
          "name": "user",
          "type": "address"
        },
        {
          "internalType": "uint256",
          "name": "reservedFunds",
          "type": "uint256"
        }
      ],
      "stateMutability": "view",
      "type": "function"
    },
    {
      "inputs": [],
      "name": "checkIfUserBooked",
      "outputs": [
        {
          "internalType": "bool",
          "name": "",
          "type": "bool"
        }
      ],
      "stateMutability": "view",
      "type": "function"
    },
    {
      "inputs": [],
      "name": "checkOut",
      "outputs": [],
      "stateMutability": "nonpayable",
      "type": "function"
    },
    {
      "inputs": [],
      "name": "getAvailableRooms",
      "outputs": [
        {
          "internalType": "uint256",
          "name": "",
          "type": "uint256"
        }
      ],
      "stateMutability": "view",
      "type": "function"
    },
    {
      "inputs": [
        {
          "internalType": "uint256",
          "name": "_roomCost",
          "type": "uint256"
        }
      ],
      "name": "initialize",
      "outputs": [],
      "stateMutability": "nonpayable",
      "type": "function"
    },
    {
      "inputs": [],
      "name": "owner",
      "outputs": [
        {
          "internalType": "address",
          "name": "",
          "type": "address"
        }
      ],
      "stateMutability": "view",
      "type": "function"
    },
    {
      "inputs": [],
      "name": "renounceOwnership",
      "outputs": [],
      "stateMutability": "nonpayable",
      "type": "function"
    },
    {
      "inputs": [],
      "name": "roomCost",
      "outputs": [
        {
          "internalType": "uint256",
          "name": "",
          "type": "uint256"
        }
      ],
      "stateMutability": "view",
      "type": "function"
    },
    {
      "inputs": [],
      "name": "roomsAvailable",
      "outputs": [
        {
          "internalType": "uint256",
          "name": "",
          "type": "uint256"
        }
      ],
      "stateMutability": "view",
      "type": "function"
    },
    {
      "inputs": [],
      "name": "sendBookRequest",
      "outputs": [],
      "stateMutability": "payable",
      "type": "function"
    },
    {
      "inputs": [
        {
          "internalType": "address",
          "name": "newOwner",
          "type": "address"
        }
      ],
      "name": "transferOwnership",
      "outputs": [],
      "stateMutability": "nonpayable",
      "type": "function"
    },
    {
      "inputs": [
        {
          "internalType": "uint256",
          "name": "_roomCost",
          "type": "uint256"
        }
      ],
      "name": "updateRoomCost",
      "outputs": [],
      "stateMutability": "nonpayable",
      "type": "function"
    },
    {
      "inputs": [],
      "name": "withdraw",
      "outputs": [],
      "stateMutability": "nonpayable",
      "type": "function"
    }
  ],
  "bytecode": "0x608060405234801561001057600080fd5b506112fb806100206000396000f3fe6080604052600436106100dd5760003560e01c8063a0a934ff1161007f578063d014459511610059578063d014459514610244578063e01427c51461026f578063f2fde38b1461029a578063fe4b84df146102c3576100dd565b8063a0a934ff146101c4578063be26080f14610202578063cba5751c1461022d576100dd565b8063715018a6116100bb578063715018a61461012e57806378cfeb26146101455780638da5cb5b1461016e5780638f4eb0db14610199576100dd565b80631648db07146100e25780631b37cd29146100ec5780633ccfd60b14610117575b600080fd5b6100ea6102ec565b005b3480156100f857600080fd5b50610101610612565b60405161010e9190610e9a565b60405180910390f35b34801561012357600080fd5b5061012c6106a9565b005b34801561013a57600080fd5b50610143610738565b005b34801561015157600080fd5b5061016c60048036038101906101679190610ef0565b61074c565b005b34801561017a57600080fd5b5061018361075e565b6040516101909190610f5e565b60405180910390f35b3480156101a557600080fd5b506101ae610796565b6040516101bb9190610f88565b60405180910390f35b3480156101d057600080fd5b506101eb60048036038101906101e69190610fcf565b61079c565b6040516101f9929190610ffc565b60405180910390f35b34801561020e57600080fd5b506102176107e0565b6040516102249190610f88565b60405180910390f35b34801561023957600080fd5b506102426107e6565b005b34801561025057600080fd5b50610259610982565b6040516102669190610f88565b60405180910390f35b34801561027b57600080fd5b5061028461098c565b6040516102919190611041565b60405180910390f35b3480156102a657600080fd5b506102c160048036038101906102bc9190610fcf565b610991565b005b3480156102cf57600080fd5b506102ea60048036038101906102e59190610ef0565b610a17565b005b600060025411610331576040517f08c379a0000000000000000000000000000000000000000000000000000000008152600401610328906110b9565b60405180910390fd5b3373ffffffffffffffffffffffffffffffffffffffff166000803373ffffffffffffffffffffffffffffffffffffffff1673ffffffffffffffffffffffffffffffffffffffff16815260200190815260200160002060000160009054906101000a900473ffffffffffffffffffffffffffffffffffffffff1673ffffffffffffffffffffffffffffffffffffffff1603610400576040517f08c379a00000000000000000000000000000000000000000000000000000000081526004016103f790611125565b60405180910390fd5b600154341015610445576040517f08c379a000000000000000000000000000000000000000000000000000000000815260040161043c90611191565b60405180910390fd5b60026000815480929190610458906111e0565b919050555060405180604001604052803373ffffffffffffffffffffffffffffffffffffffff168152602001348152506000803373ffffffffffffffffffffffffffffffffffffffff1673ffffffffffffffffffffffffffffffffffffffff16815260200190815260200160002060008201518160000160006101000a81548173ffffffffffffffffffffffffffffffffffffffff021916908373ffffffffffffffffffffffffffffffffffffffff160217905550602082015181600101559050506000803373ffffffffffffffffffffffffffffffffffffffff1673ffffffffffffffffffffffffffffffffffffffff16815260200190815260200160002060000160009054906101000a900473ffffffffffffffffffffffffffffffffffffffff1673ffffffffffffffffffffffffffffffffffffffff166108fc349081150290604051600060405180830381858888f193505050501580156105c1573d6000803e3d6000fd5b503373ffffffffffffffffffffffffffffffffffffffff167fc60789c7c4982a8bba0f116d4fd32feaf228c2989f2c9707a57fe733b7b6a7dd346040516106089190610f88565b60405180910390a2565b60003373ffffffffffffffffffffffffffffffffffffffff166000803373ffffffffffffffffffffffffffffffffffffffff1673ffffffffffffffffffffffffffffffffffffffff16815260200190815260200160002060000160009054906101000a900473ffffffffffffffffffffffffffffffffffffffff1673ffffffffffffffffffffffffffffffffffffffff1614905090565b6106b1610bb8565b6106b961075e565b73ffffffffffffffffffffffffffffffffffffffff166108fc479081150290604051600060405180830381858888f193505050501580156106fe573d6000803e3d6000fd5b507f5b6b431d4476a211bb7d41c20d1aab9ae2321deee0d20be3d9fc9b1093fa6e3d4760405161072e9190610f88565b60405180910390a1565b610740610bb8565b61074a6000610c3f565b565b610754610bb8565b8060018190555050565b600080610769610d16565b90508060000160009054906101000a900473ffffffffffffffffffffffffffffffffffffffff1691505090565b60025481565b60006020528060005260406000206000915090508060000160009054906101000a900473ffffffffffffffffffffffffffffffffffffffff16908060010154905082565b60015481565b3373ffffffffffffffffffffffffffffffffffffffff166000803373ffffffffffffffffffffffffffffffffffffffff1673ffffffffffffffffffffffffffffffffffffffff16815260200190815260200160002060000160009054906101000a900473ffffffffffffffffffffffffffffffffffffffff1673ffffffffffffffffffffffffffffffffffffffff16146108b5576040517f08c379a00000000000000000000000000000000000000000000000000000000081526004016108ac90611125565b60405180910390fd5b600260008154809291906108c890611209565b91905055506000803373ffffffffffffffffffffffffffffffffffffffff1673ffffffffffffffffffffffffffffffffffffffff168152602001908152602001600020600080820160006101000a81549073ffffffffffffffffffffffffffffffffffffffff0219169055600182016000905550503373ffffffffffffffffffffffffffffffffffffffff167fa9271467040c0aeddfe214d97ecd77beca45d6bd031ef8fa69cb1db15b55f60360405160405180910390a2565b6000600254905090565b601481565b610999610bb8565b600073ffffffffffffffffffffffffffffffffffffffff168173ffffffffffffffffffffffffffffffffffffffff1603610a0b5760006040517f1e4fbdf7000000000000000000000000000000000000000000000000000000008152600401610a029190610f5e565b60405180910390fd5b610a1481610c3f565b50565b6000610a21610d3e565b905060008160000160089054906101000a900460ff1615905060008260000160009054906101000a900467ffffffffffffffff1690506000808267ffffffffffffffff16148015610a6f5750825b9050600060018367ffffffffffffffff16148015610aa4575060003073ffffffffffffffffffffffffffffffffffffffff163b145b905081158015610ab2575080155b15610ae9576040517ff92ee8a900000000000000000000000000000000000000000000000000000000815260040160405180910390fd5b60018560000160006101000a81548167ffffffffffffffff021916908367ffffffffffffffff1602179055508315610b395760018560000160086101000a81548160ff0219169083151502179055505b610b4233610d52565b85600181905550601460ff166002819055508315610bb05760008560000160086101000a81548160ff0219169083151502179055507fc7f505b2f371ae2175ee4913f4499e1f2633a7b5936321eed1cdaeb6115181d26001604051610ba791906112aa565b60405180910390a15b505050505050565b610bc0610d66565b73ffffffffffffffffffffffffffffffffffffffff16610bde61075e565b73ffffffffffffffffffffffffffffffffffffffff1614610c3d57610c01610d66565b6040517f118cdaa7000000000000000000000000000000000000000000000000000000008152600401610c349190610f5e565b60405180910390fd5b565b6000610c49610d16565b905060008160000160009054906101000a900473ffffffffffffffffffffffffffffffffffffffff169050828260000160006101000a81548173ffffffffffffffffffffffffffffffffffffffff021916908373ffffffffffffffffffffffffffffffffffffffff1602179055508273ffffffffffffffffffffffffffffffffffffffff168173ffffffffffffffffffffffffffffffffffffffff167f8be0079c531659141344cd1fd0a4f28419497f9722a3daafe3b4186f6b6457e060405160405180910390a3505050565b60007f9016d09d72d40fdae2fd8ceac6b6234c7706214fd39c1cd1e609a0528c199300905090565b600080610d49610d6e565b90508091505090565b610d5a610d99565b610d6381610dd9565b50565b600033905090565b60007ff0c57e16840df040f15088dc2f81fe391c3923bec73e23a9662efc9c229c6a0060001b905090565b610da1610e5f565b610dd7576040517fd7e6bcf800000000000000000000000000000000000000000000000000000000815260040160405180910390fd5b565b610de1610d99565b600073ffffffffffffffffffffffffffffffffffffffff168173ffffffffffffffffffffffffffffffffffffffff1603610e535760006040517f1e4fbdf7000000000000000000000000000000000000000000000000000000008152600401610e4a9190610f5e565b60405180910390fd5b610e5c81610c3f565b50565b6000610e69610d3e565b60000160089054906101000a900460ff16905090565b60008115159050919050565b610e9481610e7f565b82525050565b6000602082019050610eaf6000830184610e8b565b92915050565b600080fd5b6000819050919050565b610ecd81610eba565b8114610ed857600080fd5b50565b600081359050610eea81610ec4565b92915050565b600060208284031215610f0657610f05610eb5565b5b6000610f1484828501610edb565b91505092915050565b600073ffffffffffffffffffffffffffffffffffffffff82169050919050565b6000610f4882610f1d565b9050919050565b610f5881610f3d565b82525050565b6000602082019050610f736000830184610f4f565b92915050565b610f8281610eba565b82525050565b6000602082019050610f9d6000830184610f79565b92915050565b610fac81610f3d565b8114610fb757600080fd5b50565b600081359050610fc981610fa3565b92915050565b600060208284031215610fe557610fe4610eb5565b5b6000610ff384828501610fba565b91505092915050565b60006040820190506110116000830185610f4f565b61101e6020830184610f79565b9392505050565b600060ff82169050919050565b61103b81611025565b82525050565b60006020820190506110566000830184611032565b92915050565b600082825260208201905092915050565b7f416c6c20726f6f6d7320617265206f6363757069656400000000000000000000600082015250565b60006110a360168361105c565b91506110ae8261106d565b602082019050919050565b600060208201905081810360008301526110d281611096565b9050919050565b7f596f7527766520616c726561647920626f6f6b6564206120726f6f6d00000000600082015250565b600061110f601c8361105c565b915061111a826110d9565b602082019050919050565b6000602082019050818103600083015261113e81611102565b9050919050565b7f496e73756666696369656e7420616d6f756e7400000000000000000000000000600082015250565b600061117b60138361105c565b915061118682611145565b602082019050919050565b600060208201905081810360008301526111aa8161116e565b9050919050565b7f4e487b7100000000000000000000000000000000000000000000000000000000600052601160045260246000fd5b60006111eb82610eba565b9150600082036111fe576111fd6111b1565b5b600182039050919050565b600061121482610eba565b91507fffffffffffffffffffffffffffffffffffffffffffffffffffffffffffffffff8203611246576112456111b1565b5b600182019050919050565b6000819050919050565b600067ffffffffffffffff82169050919050565b6000819050919050565b600061129461128f61128a84611251565b61126f565b61125b565b9050919050565b6112a481611279565b82525050565b60006020820190506112bf600083018461129b565b9291505056fea2646970667358221220ab74086f2e1b73206fb04bb607534f6a3b80fad1332aedb75d59af4880a50b4764736f6c63430008180033",
  "linkReferences": {},
  "deployedLinkReferences": {}
}